:020000040800F2
:10000000F8C8012081910008D5040008D704000831
:10001000D9040008DB040008DD040008000000002B
:10002000000000000000000000000000DF040008E5
:10003000E104000800000000E3040008E5040008F3
:100040009B9100089B9100089B9100089B910008E0
:100050009B9100089B9100089B9100089B910008D0
:100060009B9100089B9100089B9100089B910008C0
:100070009B9100089B910008A17300087B73000806
:100080009B9100089B9100089B9100089B910008A0
:100090009B9100089B9100089B9100089B91000890
:1000A0009B9100089B9100089B9100089B91000880
:1000B0009B910008D577000837BA00089B9100088B
:1000C0009B9100089B9100089B9100089B91000860
:1000D0009B910008199100089B9100089B910008D2
:1000E0009B9100089B9100089B9100089B91000840
:1000F0009B9100089B9100089B9100089B91000830
:100100009B9100087F6C00089B9100089B91000860
:100110009B9100089B910008FF7700089B910008C5
:100120009B9100089B9100089B9100089B910008FF
:100130009B9100089B9100089B9100089B910008EF
:100140009B9100089B9100089B9100089B910008DF
:100150009B9100089B9100089B9100089B910008CF
:100160009B9100089B9100089B9100089B910008BF
:100170009B9100089B9100089B9100089B910008AF
:100180009B9100089B91000800F002F800F08AF8AB
:100190000AA090E8000C82448344AAF10107DA45E2
:1001A00001D100F07FF8AFF2090EBAE80F0013F0AA
:1001B000010F18BFFB1A43F001031847E87802004B
:1001C000087902000A444FF0000C10F8013B13F0CC
:1001D000070408BF10F8014B1D1108BF10F8015BA0
:1001E000641E05D010F8016B641E01F8016BF9D193
:1001F00013F0080F1EBF10F8014BAD1C0C1B09D1EA
:100200006D1E58BF01F801CBFAD505E014F8016B5B
:1002100001F8016B6D1EF9D59142D6D370470000ED
:100220000023002400250026103A28BF78C1FBD8FF
:10023000520728BF30C148BF0B6070476E2921F0BC
:10024000CF81702921F09C82692921F08D81642958
:1002500021F08A81752921F087816F2921F032826E
:10026000782921F080820368DB0928BF41F08001F2
:10027000632921F03887732921F03D87E32921F094
:100280005B87002070471FB523F049F822F0C2F9C0
:1002900004000020002122F00BFA401C60601FBD0A
:1002A00010B510BD22F090F91146FFF7ECFF00F0F9
:1002B00011F822F0B3F903B4FFF7F2FF03BC08F022
:1002C000D1FE000030BF72B6704762B6704780F34F
:1002D000088870470EB56F4D542069688847002024
:1002E0000AF0D8FF02200AF0D5FF0EF057FD6A4C45
:1002F00001226AA120680DF0BBF8012268A16068A4
:100300000DF0B6F84FF4A06008F058FFA82008F0F0
:100310004DFE4FF4E13008F0ADFE00F0A3F969683E
:100320005420884701F054F904F0D4FE04F0F9FF9A
:1003300007F098F80021012007F012F90022114679
:10034000104607F04FF90021012007F073F9192139
:10035000084607F094F93C2007F0A4F942F2CF01D7
:1003600042F20F7007F00AFA00200AF093FF022011
:100370000AF090FF0EF012FD012248A120680DF056
:1003800077F8484D4FF47846474F2E8010244FF6AB
:10039000FF781DE045A0CDE900401023C82232219E
:1003A0001E2004F063FEC82008F041FE4223F02224
:1003B00032211E20CDF8008000F06DFAC82008F030
:1003C00036FED7F8A402002849D00020C7F8A402BE
:1003D0000FF012FC0028DDD1374F3868804740F21B
:1003E000DC5008F024FEB14601264FF01F084FF400
:1003F000967A00F0A2FBA5F8009030A08DE851009D
:1004000014211023782208460FF0ECFC2EA08DE872
:10041000510010237822142187200FF0E3FC0020E4
:1004200008F025F90028FAD0B88901461538312896
:1004300017D2F88A282814D9642812D2A5F8008087
:100440001EA08DE8510014211023782208460FF0D9
:10045000C9FC504608F0EBFD10F040F9C9E7012057
:10046000B4E788395429DAD2F88A2828D7D9462817
:10047000D5D2A5F8008014A08DE851001023782271
:10048000142187200FF0AEFC504608F0D0FD0FF08D
:10049000C7F8AEE7BC010020ACBF0120303A000035
:1004A000313A00001400002000804242466F6E7412
:1004B000204572726F722100B4000020CAD3C6B505
:1004C000B2A5B7C5C6F70000CEC4BCFEB2E9BFB442
:1004D000C6F700007047FEE7FEE7FEE7FEE770475D
:1004E00070477047704700000CB5002254490092D5
:1004F0000192086840F4803008604FF4A043086817
:1005000000F4003001900098401C0090019810B950
:1005100000989842F3D10868800334D501200190F7
:1005200047484030026842F0805202604548026805
:1005300042F44042026042480830026802600268A9
:1005400042F400420260026842F4A0520260031FBB
:100550003D4A1A600A6842F080720A600A68920195
:10056000FCD53A4940F205720A60016821F00301A6
:100570000160016841F0020101600168C1F381017D
:100580000229FAD10CBD01920CBD314810B50168A9
:1005900041F4700101602A48016841F001010160E5
:1005A000274A00210832116002682A4B1A40026073
:1005B000031D294A1A60026822F480220260204842
:1005C0000C300160FFF790FF21494FF00060803947
:1005D000086010BD70B51A4D083528681F4B2049BA
:1005E00010F00C0004D05E10042803D0082803D0BB
:1005F0000B601BE00E6019E0114A121D1068C0F379
:100600008054106800F03F0014B1B6FBF0F001E038
:10061000B3FBF0F013681268C3F388135843C2F3B6
:100620000142521C5200B0FBF2F0086028680C4AEC
:10063000C0F30310121D105C0A68C2400A6070BD4E
:10064000003802400070004008544007003C02405F
:1006500088ED00E0FFFFF6FE103000240024F400D7
:10066000000000207CB50121202009F092FA012031
:100670008DF8040000228DF8062003218DF8051066
:10068000074D4FF4C0648DF8070000946946284672
:1006900008F058FE2146284608F0B9FE7CBD00004F
:1006A00000140240F8484FF0D8410089A1F87E00BC
:1006B00070474FF0D84222F87E0F5180704701B545
:1006C000BDF80000ADF80000BDF800004FF0D841C3
:1006D000A1F8800008BD01B5BDF80000ADF800002C
:1006E000BDF800004FF0D841A1F87E0008BDF0B57C
:1006F000E54E0C460246050AB1883046A1F5134383
:1007000040894FEA142C413B1AD0A1F5A643103B77
:1007100016D0B646B3793688A1F5D047B61A761EFC
:10072000043F17D07746A1F5C85EBEF1630E25D011
:10073000A1F5A04EBEF5A26E57D0012B6ED06EE093
:10074000FFF7C9FF2846FFF7BAFFD0B2FFF7B7FFA0
:10075000B0890CE07546012B00D1B2B2FFF7BBFFA8
:10076000100AFFF7ACFFD0B2FFF7A9FFA889FFF787
:10077000B2FF6046FFF7A3FFE0B225E03BB3FFF70F
:10078000AAFF2846FFF79BFFD0B2FFF798FF3888F3
:10079000401EC0F30F20FFF792FF3878401EC0B212
:1007A000FFF78DFFB889FFF796FF6046FFF787FFD9
:1007B000E0B2FFF784FF7888401EC0F30F20FFF7F8
:1007C0007EFFB878401EC0B2BDE8F04077E7B2B215
:1007D000FFF781FF0020FFF772FF0020FFF76FFF98
:1007E000100AFFF76CFFD0B2DAE7FFF774FF284674
:1007F000FFF765FF7889401C80B2FFF76CFFD0B22D
:10080000FFF75DFFB889FFF766FF6046FFF757FF08
:10081000B889401C80B2FFF75EFFADE7B2B2114667
:10082000FFF747FFB8892146BDE8F04041E72DE9D1
:10083000F043954F0646002438887D884543B888A4
:10084000A0F5D041043902D1B879012808D000219F
:100850000846FFF74CFFFFF725FF4FF0D84016E0A2
:100860000020B8714FF02A09A7F80A904FF02B0822
:10087000A7F80C800146FFF73AFF0120B871A7F8EE
:100880000A80A7F80C90E6E7A0F88060641CAC42F0
:10089000FAD3BDE8F0832DE9F8437B4D1F4680462F
:1008A000AB88089EA3F5D040043802D1A87901286E
:1008B00007D0A2EB0800401C85B20C464FF0D84987
:1008C00029E02B880846991A0024AC713A462A245C
:1008D000A3EB08036C812B27491E5B1EAF8189B2F5
:1008E0009BB20096FFF7D7FF0120A8716F81AC8102
:1008F000BDE8F88321464046FFF7F9FEFFF7D2FE38
:100900000020494603E0A1F88060401C80B2A84264
:10091000F9D3641CA4B2BC42ECD9E9E72DE9FF5F2E
:10092000202100200AF05CFD0446242100200AF06A
:1009300057FD56A103900DF030F9002710254FF612
:10094000FF7816E054A08DE8A1001023F022AA2120
:100950001E200FF047FAC82008F069FBBA23F022E6
:10096000AA211E20CDF80080FFF795FFC82008F0CF
:100970005EFB46A103980DF010F90028E2D140F289
:10098000FF11E1610AF02CFDA0610020E1690AF08D
:1009900027FD83460C2100200AF022FDB9460646B9
:1009A000474615E041A18DE822021023F022AA213A
:1009B0001E200FF017FAC82008F039FBBA23F022E6
:1009C000AA211E200097FFF766FFC82008F02FFB22
:1009D000A0690028E6D0BBF1000FE3D0002EE1D0E3
:1009E0002AA103980DF0D9F8D0B900254FF00509D8
:1009F00004F1090803982146C7880DF017F978B962
:100A0000607A68B1A069017801B940460EF0FBF93F
:100A1000B9EB101FEED126F815706D1CADB2E9E7E9
:100A20001FF01DFD012519A103980DF0B6F88046B1
:100A300001274FF0300963E036F8151003980BF0EA
:100A400042FF214603980DF0F1F88046A069017835
:100A500009B904F10900824618A1584621F092F81C
:100A60005146584621F0D1F8052D41D2DFE805F076
:100A7000032C323639004FF4A070CDE90007F02383
:100A800000221146584622E0FC020020303A2F5046
:100A9000494354555245000050494354555245CEA0
:100AA000C4BCFEBCD0B4EDCEF3210000C4DAB4E681
:100AB000B7D6C5E4CAA7B0DC21000000303A2F50F9
:100AC0004943545552452F0030238C2204E01FF037
:100AD00058FD11E03023F022232105E030238C2241
:100AE00001E03023F0228721CDE900975846EEE758
:100AF00040F2FF70FFF79BFE6D1CADB2052D02D2D8
:100B0000B8F1000F98D003980DF087F800200399F2
:100B10000AF05DFC0020A1690AF059FC2146002082
:100B20000AF055FC594600200AF051FC04B0314649
:100B3000BDE8F05F00200AF04ABC2DE9FF5F2021EC
:100B400000200AF04DFC0446242100200AF048FC55
:100B5000FAA103900DF021F8002710254FF6FF7839
:100B600016E0F9A08DE8A1001023F022AA211E2092
:100B70000FF038F9C82008F05AFABA23F022AA2157
:100B80001E20CDF80080FFF786FEC82008F04FFA3F
:100B9000EAA103980DF001F80028E2D140F2FF111C
:100BA000E1610AF01DFCA0610020E1690AF018FC77
:100BB0008346062100200AF013FCB9460646474644
:100BC00016E0AFF218118DE822021023F022AA21BC
:100BD0001E200FF007F9C82008F029FABA23F022E6
:100BE000AA211E200097FFF756FEC82008F01FFA22
:100BF000A0690028E5D0BBF1000FE2D0002EE0D0C4
:100C0000CEA103980CF0C9FFD0B900254FF005091B
:100C100004F1090803982146C7880DF007F878B950
:100C2000607A68B1A069017801B940460EF0EBF82E
:100C3000B9EB101FEED126F815706D1CADB2E9E7C7
:100C40001FF00DFC0025BDA103980CF0A6FF074680
:100C50004FF001094FF0300A30E036F815100398D4
:100C60000BF031FE214603980CF0E0FF0746A06927
:100C7000017809B904F109008046B8A1584620F06E
:100C800081FF4146584620F0C0FF25B1012D0BD011
:100C9000022D0FD12EE04FF4A071CDE90019F02301
:100CA00000221146584603E030232822232124E065
:100CB0001FF067FC6D1CADB2032D01D2002FCCD00C
:100CC00003980CF0AAFF002003990AF080FB002093
:100CD000A1690AF07CFB214600200AF078FB594606
:100CE00000200AF074FB04B03146BDE8F05F00203C
:100CF0000AF06DBB302328229621CDE900A9584681
:100D0000D6E770B592B00146002408A80CF045FF64
:100D1000054640F2FF11002007910AF061FB0690A2
:100D2000CDB9C0B105260DF10905694608A80CF03A
:100D30007DFF80B99DF8090068B10698007808B178
:100D4000069800E028460EF05EF8B6EB101FECD1D6
:100D5000641CA4B2E9E712B0204670BD08B54FF09C
:100D6000D840B0F88000ADF80000BDF8000008BD24
:100D700010B5FFF7B0FC052008F02BF9BDE81040D6
:100D8000ECE74FF0D841A1F880007047C0F345115F
:100D9000C20AC00200EB4110104480B27047401EEE
:100DA000C0B2FCD270472DE9F0416F4E00242546B9
:100DB0003288824202D972888A4202D80020BDE875
:100DC000F081FFF794FCB08849F2413841F6631C8A
:100DD00045F2103245F21057404507D0A0F5D041FA
:100DE000043903D0904201D0604501D12E2005E0A6
:100DF000B84202D14FF4385000E02220FFF76BFCDC
:100E0000B088A0F51341203903D10220401EC0B2A2
:100E1000FCD2FFF7A3FFB1886145D0D00220401E6D
:100E2000C0B2FCD2FFF79AFF0146B088C4466045C5
:100E300003D0904201D0B8420BD10220401EC0B274
:100E4000FCD2FFF78BFF0546C8B24FF6FF7303EAEB
:100E50000024B088A0F51343253B1AD0A0F58A439F
:100E6000353B16D01B1D14D0A0F53543053B10D0E3
:100E7000B3F580530DD0604503D0904201D0B84205
:100E800009D1C80AC002A10A40EA411040EAD520AF
:100E900095E7084693E7BDE8F041084676E7324813
:100EA0008088A0F51341413914D0A0F5D041043910
:100EB00010D0A0F5A64110390CD0A0F5C851633967
:100EC00008D0A0F5AA41103906D040F273110720CE
:100ED000FFF7EFBB292001E04FF42450FFF7FBBBE5
:100EE00021488088A0F51341413913D0A0F5D041A5
:100EF00004390FD0A0F5A64110390BD0A0F5C85188
:100F0000633907D0A0F5AA41103905D00021072088
:100F1000FFF7CFBB282001E04FF42050FFF7DBBBE9
:100F2000F0B5114C00232146A279898846F60407C2
:100F300041F66315012A19D0EAB135E0303A2F4164
:100F4000505049434F4E000041505049434F4ECE00
:100F5000C4BCFEBCD0B4EDCEF3210000303A2F412A
:100F6000505049434F4E2F00FC020020B9421BD085
:100F7000A94202D118E0A94216D1082814D2DFE80C
:100F800000F00406080A0C0E101206200CE00720E0
:100F90000AE0042008E0052006E0012004E000202B
:100FA00002E0032000E00220A1F5134C45F21032CC
:100FB00045F21056BCF1410C07D0B94205D0914220
:100FC00003D0B14201D0A9427BD1082812D2DFE878
:100FD00000F0110406080A0C0E1080230AE04023DA
:100FE00008E0C02306E0202304E0602302E0A02301
:100FF00000E0E023B14202D14FF4585000E0362027
:10100000914205D0B14203D0A94201D043F0080378
:10101000B94201D143F002031946FFF74AFBA28807
:10102000AA420AD098062088618802D5884202D355
:1010300003E0884201D9218060806089B24241D1B9
:10104000FFF749FB0020FFF73AFB6089401C80B2A4
:10105000FFF741FB0020FFF732FB6089801C80B264
:10106000FFF739FB2088401EC0F30F20FFF727FB56
:101070006089C01C80B2FFF72EFB2078401EC0B2F2
:10108000FFF71DFBA089FFF726FB0020FFF717FBEA
:10109000A089401C80B2FFF71EFB0020FFF70FFB6A
:1010A000A089801C80B2FFF716FB6088401EC0F349
:1010B0000F20FFF704FBA089C01C80B2FFF70BFBD9
:1010C00022E028E0FFF707FB0020FFF7F8FA0020F6
:1010D000FFF7F5FA2088401EC0F30F20FFF7EFFA64
:1010E0002078401EC0B2FFF7EAFAA089FFF7F3FAB2
:1010F0000020FFF7E4FA0020FFF7E1FA6088401EC5
:10110000C0F30F20FFF7DBFAA078BDE8F040401EE7
:10111000C0B2FFF7D4BA082812D2DFE800F0040604
:1011200008110A0C0E1030230AE0102308E02023D7
:1011300006E0382304E0282302E0182300E0082317
:10114000BDE8F040032043F48051FFF7B2BA00B588
:10115000FFF7CDFAFFF7A6FAFE484FF0D841008816
:10116000A1F8800000BD2DE9F041FB4D90460C46F2
:101170000246060AA9882846A1F5134340894FEA8A
:10118000142C413B16D0A1F5A643103B12D0B3F569
:10119000007313D02E46A1F5C857B3793688B61A16
:1011A000761E633F23D0A1F5D047043F3AD0012BF0
:1011B0004DD04DE0FFF78FFA304639E0FFF78BFA5C
:1011C0003046FFF77CFA6889401C80B2FFF783FA4B
:1011D000D0B2FFF774FAA889FFF77DFA6046FFF7EF
:1011E0006EFAA889401C80B2FFF775FA2BE003B9AC
:1011F000B2B2FFF770FA160A3046FFF760FAD0B2C3
:10120000FFF75DFA3046FFF75AFAD0B2FFF757FA08
:10121000A889FFF760FA6046FFF751FAE0B2FFF7DE
:101220004EFA0DE0012B00D1B2B2FFF754FA100ACA
:10123000FFF745FAD0B2FFF742FAA889FFF74BFA59
:101240006046FFF73CFAE0B2FFF739FA07E0B2B2C6
:101250001146FFF72EFAA8892146FFF72AFA4FF028
:10126000D840298920F87E1FA0F80280A7E510B594
:101270000246BE20FFF72FFA0520FFF720FA10469E
:1012800021F097FC9FEDB51B53EC112B21F0E0FCF6
:1012900021F062FC80B2FFF712FA0120FFF70FFA8B
:1012A000FF20FFF70CFA0020FFF709FABDE8104015
:1012B0000020FFF704BA2DE9F04FA7492A232B2479
:1012C000898845F2105A4FF4305B4FF4285E4FF492
:1012D00048754FF0F00C49F241394FF4A07745F2D0
:1012E00010364FF4F07280B19B484FF00108494529
:1012F00080F806800780A0F802C001D0B1423ED13C
:101300002C2505814381848157E093484FF00008E4
:10131000494580F80680A0F800C0478006D0A1F5B6
:10132000D04CBCF1040C01D0B1420CD12C2505816C
:101330004381A1F5D0438481043B01D0B14244D123
:101340000780428041E0514507D1A0F808B0A0F8DD
:101350000AE04FF42C5181810EE0A1F5C856633E9E
:1013600006D02221018120214181212181812CE08F
:101370002C210181448183810280458025E0A1F5F3
:10138000D04CBCF1040C09D051450BD1A0F808B0E9
:10139000A0F80AE04FF42C53838120E02C2505812E
:1013A000448109E0A1F5C85CBCF1630C11D0222393
:1013B00003812123438120238381A1F5D043043B72
:1013C00001D0B14201D102804780BDE8F04F00203A
:1013D000A6E54FF02C0CA0F808C04381848105805D
:1013E0004280EAE72DE9FE4F0446104401EB030872
:1013F000DFF86491401EA8F1010887B2B9F8040033
:10140000C8F3072302930B0A0093A3185B1EC3F3D0
:10141000072301934B460D465B89A0F513411FFA44
:1014200088F64FEA142B413910D0A0F5A6411039A7
:101430000CD0A0F5D041043908D099F806A041F6A7
:10144000631CBAF1010F1ED160451CD14A461846F3
:10145000FFF741F95846FFF732F9E0B2FFF72FF9ED
:101460000198FFF72CF9F8B2FFF729F99089FFF7F7
:1014700032F90098FFF723F9E8B2FFF720F9029854
:10148000FFF71DF996E034496045098825D1881A8F
:10149000001B84B24E461FFA88F71846FFF71BF967
:1014A000200AFFF70CF9E0B2FFF709F92244521EB7
:1014B000C2F30F20FFF703F9D0B2FFF700F9B089AC
:1014C000FFF709F90098FFF7FAF8E8B2FFF7F7F825
:1014D000380AFFF7F4F8F8B26DE0A0F5A04C4A46E0
:1014E000BCF5A26C23D0BAF1010F68D03B46204670
:1014F0002F46502201464FF051094FF052084FF04D
:10150000530C1046FFF7D5F819464846FFF7D1F8B7
:1015100039464046FFF7CDF831466046FFF7C9F837
:1015200003B029462046BDE8F04FFFF7E0B8184663
:10153000FFF7D1F85846FFF7C2F85089401C80B237
:10154000FFF7C9F8E0B2FFF7BAF85089801C80B203
:1015500008E0000014000020FC02002066666666B9
:1015600066660440FFF7B7F80198FFF7A8F85089BE
:10157000C01C80B2FFF7AFF8F8B2FFF7A0F890896F
:10158000FFF7A9F80098FFF79AF89089401C80B2FD
:10159000FFF7A1F8E8B2FFF792F89089801C80B2BB
:1015A000FFF799F80298FFF78AF89089C01C80B27B
:1015B000FFF791F8F0B2BDE8FE4FFFF780B8CA1B05
:1015C000521E091B3346491E284697B28EB290E739
:1015D0002DE9F04FA1B0002401217A201F9408F0DA
:1015E000D8FA0121084608F0E8FA01208DF8040035
:1015F0008DF8064002208DF8050001204FF4004BC5
:101600008DF80700CDF800B06946FE4807F09AFE55
:101610004CF23370009002208DF804008DF80640E3
:1016200003208DF8050001208DF807006946F64873
:1016300007F088FE4FF68070009002208DF80400BD
:101640008DF8064003208DF805000120EF4D8DF840
:1016500007006946284607F075FEA814009002208E
:101660008DF804008DF8064003208DF80500012058
:10167000E74E8DF807006946304607F063FEA81470
:10168000009002208DF804008DF8064003208DF8AC
:1016900005000120DF4F8DF807006946384607F046
:1016A00051FE0C220021D84807F0C0FE0C22012177
:1016B000D54807F0BBFE0C220421D34807F0B6FE44
:1016C0000C220521D04807F0B1FE0C220821CE489B
:1016D00007F0ACFE0C220921CB4807F0A7FE0C2234
:1016E0000A21C94807F0A2FE0C220E21C64807F0C5
:1016F0009DFE0C220F21C44807F098FE0C22072102
:10170000284607F093FE0C220821284607F08EFE9B
:101710000C220921284607F089FE0C220A212846BE
:1017200007F084FE0C220B21284607F07FFE0C22D6
:101730001146284607F07AFE0C220D21284607F0B4
:1017400075FE0C220E21284607F070FE0C220F2198
:10175000284607F06BFE0C221146304607F066FE65
:101760000C221146384607F061FE0F20CDE9110426
:101770003C20CDE91304159409201694CDE91740B7
:101780000820CDE919401B941C940620CDE90204E1
:101790001D941E941020CDE9044006940002CDE96A
:1017A0000A40089407948000CDE90C40099411A8E0
:1017B000CDE90E4018A8109002A807F070FE012194
:1017C000062007F0E5FE322007F031FC0121002061
:1017D000FEF76FFF322007F02AFC0020FFF7C8FA5F
:1017E0008D4A4FF020494FF6FF7A908049F24135FB
:1017F00045F2103645F2105441F6631846F60407D8
:10180000FF2804D3504502D0B0F5134F75D1D32033
:10181000FEF761FFFFF7A2FA9080FFF79FFA908032
:10182000FFF79CFA0AEA0020D4469080FFF796FA68
:10183000918808439080A8425FD0BF20FEF74BFFFD
:10184000FFF78CFA9080FFF789FA9080FFF786FA0D
:101850009080FFF783FA0CEA00209080FFF77EFA71
:10186000918808439080B84247D0D420FEF733FFD8
:10187000FFF774FA9080FFF771FA9080FFF76EFA25
:101880000CEA00209080FFF769FA91880843908065
:10189000B04232D04FF45A40FEF71DFFFFF75EFA18
:1018A00090804FF45B40FEF716FFFFF757FA0CEA03
:1018B000002090804FF45C40FEF70DFFFFF74EFADA
:1018C000918808439080584501D194801EE0A04241
:1018D00013D0A120FEF7FFFEFFF740FA9080FFF73C
:1018E0003DFA0CEA00209080FFF738FA918808430F
:1018F000A0F5AE419080613920D080B2A84205D0D9
:10190000B04203D0A04201D040451AD1D9F81C11F1
:10191000484621F00F01C9F81C11D9F81C1121F417
:101920007061C9F81C11D9F81C1141F00301C9F804
:101930001C11D9F81C1141F400711FE0A2F80480B9
:10194000E4E7B84203D0A0F54541053918D1D9F8EC
:101950001C11484621F00F01C9F81C11D9F81C11BF
:1019600021F47061C9F81C11D9F81C1141F00A0169
:10197000C9F81C11D9F81C1141F44061C0F81C11C0
:101980009146918825A01FF06DFDB9F80400A8428A
:101990007DD1CF20FEF79FFE0020FEF790FEC120F4
:1019A000FEF78DFE3020FEF78AFEED20FEF793FE57
:1019B0006420FEF784FE0320FEF781FE1220FEF76E
:1019C0007EFE8120FEF77BFEE820FEF784FE852068
:1019D000FEF775FE1020FEF772FE7A20FEF76FFE0E
:1019E000CB20FEF778FE3920FEF769FE2C20FEF7AB
:1019F00066FE0020FEF763FE3420FEF760FE022044
:101A000014E0000000040240000C024000100240FC
:101A10000014024000180240FC020020204C434405
:101A20002049443A25780D0A00000000FEF747FEE1
:101A3000F720FEF750FE2020FEF741FEEA20FEF7D9
:101A40004AFE0020FEF73BFE0020FEF738FEC020D5
:101A5000FEF741FE1B20FEF732FEC120FEF73BFEE3
:101A60000120FEF72CFEC520FEF735FE3020FEF7E4
:101A700026FE3020FEF723FEC720FEF72CFEB720FF
:101A8000FEF71DFE3620FEF726FE482000E0A7E008
:101A9000FEF715FE3A20FEF71EFE5520FEF70FFE5C
:101AA000B120FEF718FE0020FEF709FE1A20FEF70F
:101AB00006FEB620FEF70FFE0A20FEF700FEA2206B
:101AC000FEF7FDFDF220FEF706FE0020FEF7F7FD13
:101AD0002620FEF700FE0120FEF7F1FDE020FEF7D4
:101AE000FAFD0F20FEF7EBFD2A20FEF7E8FD282087
:101AF000FEF7E5FD0820FEF7E2FD0E20FEF7DFFD14
:101B00000820FEF7DCFD5420FEF7D9FDA920FEF7E2
:101B1000D6FD4320FEF7D3FD0A20FEF7D0FD0F20AF
:101B2000FEF7CDFD0020FEF7CAFD0020FEF7C7FD41
:101B30000020FEF7C4FD0020FEF7C1FDE120FEF706
:101B4000CAFD0020FEF7BBFD1520FEF7B8FD1720EB
:101B5000FEF7B5FD0720FEF7B2FD1120FEF7AFFD41
:101B60000620FEF7ACFD2B20FEF7A9FD5620FEF760
:101B7000A6FD3C20FEF7A3FD0520FEF7A0FD1020EA
:101B8000FEF79DFD0F20FEF79AFD3F20FEF797FD23
:101B90003F20FEF794FD0F20FEF791FD2B20FEF76E
:101BA0009AFD0020FEF78BFD0020FEF788FD012046
:101BB000FEF785FD3F20FEF782FD2A20FEF78BFD14
:101BC0000020FEF77CFD0020FEF779FD0020FEF7E7
:101BD00076FDEF20FEF773FD1120FEF77CFDA5E0FA
:101BE000B8427CD11120FEF776FD142007F01FFAD1
:101BF000D020FEF770FD0720FEF761FD4220FEF7C2
:101C00005EFD1D20FEF75BFDD120FEF764FD002088
:101C1000FEF755FD1A20FEF752FD0920FEF74FFD95
:101C2000D220FEF758FD0120FEF749FD2220FEF7E5
:101C300046FDC020FEF74FFD1020FEF740FD3B2083
:101C4000FEF73DFD0020FEF73AFD0220FEF737FDCE
:101C50001120FEF734FDC520FEF73DFD0320FEF701
:101C60002EFDC820FEF737FD0020FEF728FD2520B9
:101C7000FEF725FD2120FEF722FD0520FEF71FFDC2
:101C80000020FEF71CFD0A20FEF719FD6520FEF777
:101C900016FD2520FEF713FD7720FEF710FD5020DE
:101CA000FEF70DFD0F20FEF70AFD0020FEF707FDF1
:101CB000F820FEF710FD0120FEF701FDFE20FEF7E3
:101CC0000AFD0020FEF7FBFC0220FEF7F8FC2020B6
:101CD000FEF701FD3620FEF7FEFC082000E02BE0B9
:101CE000FEF7EDFC3A20FEF7F6FC5520FEF7E7FC88
:101CF0002B20FEF7F0FC0020FEF7E1FC0020FEF7B1
:101D0000DEFC0120FEF7DBFC3F20FEF7D8FC2A209A
:101D1000FEF7E1FC0020FEF7D2FC0020FEF7CFFC2E
:101D20000120FEF7CCFCDF20FEF7C9FC782007F08D
:101D30007EF9292001F0FBBEB0427CD1ED20FEF7F8
:101D4000CAFC0120FEF7BBFCFE20FEF7B8FCEE202B
:101D5000FEF7C1FCDE20FEF7B2FC2120FEF7AFFC4F
:101D6000F120FEF7B8FC0120FEF7A9FCDF20FEF70A
:101D7000B2FC1020FEF7A3FCC420FEF7ACFC8F20C1
:101D8000FEF79DFCC620FEF7A6FC0020FEF797FCA0
:101D9000E220FEF794FCE220FEF791FCE220FEF741
:101DA0008EFCBF20FEF797FCAA20FEF788FCB0202F
:101DB000FEF791FC0D20FEF782FC0020FEF77FFC71
:101DC0000D20FEF77CFC0020FEF779FC1120FEF7C9
:101DD00076FC0020FEF773FC1920FEF770FC002053
:101DE000FEF76DFC2120FEF76AFC0020FEF767FC81
:101DF0002D20FEF764FC0020FEF761FC3D20FEF77D
:101E00005EFC0020FEF75BFC5D20FEF758FC002026
:101E1000FEF755FC5D20FEF752FC0020FEF74FFC5C
:101E2000B120FEF758FC8020FEF749FC0020FEF7A9
:101E300046FC8B2000E0FCE3FEF741FC0020FEF7AF
:101E40003EFC9620FEF73BFC0020FEF738FCB2205B
:101E5000FEF741FC0020FEF732FC0020FEF72FFCCD
:101E60000220FEF72CFC0020FEF729FC0320FEF7E1
:101E700026FC0020FEF723FCB320FEF72CFC0020FC
:101E8000FEF71DFC0020FEF71AFC0020FEF717FCF1
:101E90000020FEF714FC0020FEF711FC0020FEF7E6
:101EA0000EFC0020FEF70BFC0020FEF708FC0020D3
:101EB000FEF705FC0020FEF702FC0020FEF7FFFB0A
:101EC0000020FEF7FCFB0020FEF7F9FB0020FEF7E8
:101ED000F6FB0020FEF7F3FB0020FEF7F0FB0020EE
:101EE000FEF7EDFB0020FEF7EAFB0020FEF7E7FB24
:101EF0000020FEF7E4FB0020FEF7E1FB0020FEF7E8
:101F0000DEFB0020FEF7DBFB0020FEF7D8FBB42051
:101F1000FEF7E1FB8B20FEF7D2FB0020FEF7CFFBA4
:101F20009620FEF7CCFB0020FEF7C9FBA120FEF7B0
:101F3000C6FB0020FEF7C3FBB520FEF7CCFB02205A
:101F4000FEF7BDFB0020FEF7BAFB0320FEF7B7FB50
:101F50000020FEF7B4FB0420FEF7B1FB0020FEF7E3
:101F6000AEFBB620FEF7B7FB0020FEF7A8FB002073
:101F7000FEF7A5FBB720FEF7AEFB0020FEF79FFBA8
:101F80000020FEF79CFB3F20FEF799FB0020FEF7A8
:101F900096FB5E20FEF793FB0020FEF790FB64208B
:101FA000FEF78DFB0020FEF78AFB8C20FEF787FBF7
:101FB0000020FEF784FBAC20FEF781FB0020FEF73B
:101FC0007EFBDC20FEF77BFB0020FEF778FB702019
:101FD000FEF775FB0020FEF772FB9020FEF76FFB0B
:101FE0000020FEF76CFBEB20FEF769FB0020FEF7FC
:101FF00066FBDC20FEF763FB0020FEF760FBB820E9
:10200000FEF769FB0020FEF75AFB0020FEF757FBA6
:102010000020FEF754FB0020FEF751FB0020FEF7E6
:102020004EFB0020FEF74BFB0020FEF748FB002094
:10203000FEF745FBBA20FEF74EFB2420FEF73FFBE0
:102040000020FEF73CFB0020FEF739FB0020FEF7E6
:1020500036FBC120FEF73FFB2020FEF730FB0020BF
:10206000FEF72DFB5420FEF72AFB0020FEF727FB8E
:10207000FF20FEF724FB0020FEF721FBC220FEF725
:102080002AFB0A20FEF71BFB0020FEF718FB0420AA
:10209000FEF715FB0020FEF712FBC320FEF71BFB2B
:1020A0003C20FEF70CFB0020FEF709FB3A20FEF770
:1020B00006FB0020FEF703FB3920FEF700FB0020A3
:1020C000FEF7FDFA3720FEF7FAFA0020FEF7F7FADE
:1020D0003C20FEF7F4FA0020FEF7F1FA3620FEF776
:1020E000EEFA0020FEF7EBFA3220FEF7E8FA0020C5
:1020F000FEF7E5FA2F20FEF7E2FA0020FEF7DFFAFE
:102100002C20FEF7DCFA0020FEF7D9FA2920FEF792
:10211000D6FA0020FEF7D3FA2620FEF7D0FA0020E8
:10212000FEF7CDFA2420FEF7CAFA0020FEF7C7FA20
:102130002420FEF7C4FA0020FEF7C1FA2320FEF7A0
:10214000BEFA0020FEF7BBFA3C20FEF7B8FA0020EA
:10215000FEF7B5FA3620FEF7B2FA0020FEF7AFFA26
:102160003220FEF7ACFA0020FEF7A9FA2F20FEF786
:10217000A6FA0020FEF7A3FA2C20FEF7A0FA002012
:10218000FEF79DFA2920FEF79AFA0020FEF797FA4B
:102190002620FEF794FA0020FEF791FA2420FEF79D
:1021A0008EFA0020FEF78BFA2420FEF788FA002032
:1021B000FEF785FA2320FEF782FA0020FEF77FFA69
:1021C000C420FEF788FA6220FEF779FA0020FEF7B5
:1021D00076FA0520FEF773FA0020FEF770FA8420E5
:1021E000FEF76DFA0020FEF76AFAF020FEF767FAB4
:1021F0000020FEF764FA1820FEF761FA0020FEF7CF
:102200005EFAA420FEF75BFA0020FEF758FA1820C9
:10221000FEF755FA0020FEF752FA5020FEF74FFA6B
:102220000020FEF74CFA0C20FEF749FA0020FEF7DA
:1022300046FA1720FEF743FA0020FEF740FA9520F1
:10224000FEF73DFA0020FEF73AFAF320FEF737FAE0
:102250000020FEF734FAE620FEF731FA0020FEF700
:102260002EFAC520FEF737FA3220FEF728FA0020B2
:10227000FEF725FA4420FEF722FA0020FEF71FFAA7
:102280006520FEF71CFA0020FEF719FA7620FEF70B
:1022900016FA0020FEF713FA8820FEF710FA002045
:1022A000FEF70DFAC620FEF716FA2020FEF707FA11
:1022B0000020FEF704FA1720FEF701FA0020FEF7CF
:1022C000FEF90120FEF7FBF90020FEF7F8F9C72020
:1022D000FEF701FA0020FEF7F2F90020FEF7EFF911
:1022E0000020FEF7ECF90020FEF7E9F9C820FEF720
:1022F000F2F90020FEF7E3F90020FEF7E0F90020F4
:10230000FEF7DDF90020FEF7DAF9C920FEF7E3F960
:102310000020FEF7D4F90020FEF7D1F90020FEF7E7
:10232000CEF90020FEF7CBF90020FEF7C8F9002017
:10233000FEF7C5F90020FEF7C2F90020FEF7BFF94D
:102340000020FEF7BCF90020FEF7B9F90020FEF7E7
:10235000B6F90020FEF7B3F90020FEF7B0F900202F
:10236000FEF7ADF90020FEF7AAF90020FEF7A7F965
:10237000E020FEF7B0F91620FEF7A1F90020FEF7E5
:102380009EF91C20FEF79BF90020FEF798F921200A
:10239000FEF795F90020FEF792F93620FEF78FF947
:1023A0000020FEF78CF94620FEF789F90020FEF7A1
:1023B00086F95220FEF783F90020FEF780F96420A9
:1023C000FEF77DF90020FEF77AF97A20FEF777F91B
:1023D0000020FEF774F98B20FEF771F90020FEF75C
:1023E0006EF99920FEF76BF90020FEF768F9A82036
:1023F000FEF765F90020FEF762F9B920FEF75FF9F4
:102400000020FEF75CF9C420FEF759F90020FEF722
:1024100056F9CA20FEF753F90020FEF750F9D220F2
:10242000FEF74DF90020FEF74AF9D920FEF747F9EB
:102430000020FEF744F9E020FEF741F90020FEF706
:102440003EF9F320FEF73BF90020FEF738F9E120D2
:10245000FEF741F91620FEF732F90020FEF72FF9BA
:102460001C20FEF72CF90020FEF729F92220FEF7A8
:1024700026F90020FEF723F93620FEF720F9002088
:10248000FEF71DF94520FEF71AF90020FEF717F9AF
:102490005220FEF714F90020FEF711F96420FEF730
:1024A0000EF90020FEF70BF97A20FEF708F900205C
:1024B000FEF705F98B20FEF702F90020FEF7FFF882
:1024C0009920FEF7FCF80020FEF7F9F8A820FEF7A7
:1024D000F6F80020FEF7F3F8B920FEF7F0F8002038
:1024E000FEF7EDF8C420FEF7EAF80020FEF7E7F863
:1024F000CA20FEF7E4F80020FEF7E1F8D220FEF74C
:10250000DEF80020FEF7DBF8D820FEF7D8F8002030
:10251000FEF7D5F8E020FEF7D2F80020FEF7CFF85E
:10252000F320FEF7CCF80020FEF7C9F8E220FEF712
:10253000D2F80520FEF7C3F80020FEF7C0F80B2004
:10254000FEF7BDF80020FEF7BAF81B20FEF7B7F83B
:102550000020FEF7B4F83420FEF7B1F80020FEF7B3
:10256000AEF84420FEF7ABF80020FEF7A8F84F20A5
:10257000FEF7A5F80020FEF7A2F86120FEF79FF80D
:102580000020FEF79CF87920FEF799F80020FEF76E
:1025900096F88820FEF793F80020FEF790F8972031
:1025A000FEF78DF80020FEF78AF8A620FEF787F8E0
:1025B0000020FEF784F8B720FEF781F80020FEF730
:1025C0007EF8C220FEF77BF80020FEF778F8C720DF
:1025D000FEF775F80020FEF772F8D120FEF76FF8CD
:1025E0000020FEF76CF8D620FEF769F80020FEF711
:1025F00066F8DD20FEF763F80020FEF760F8F320B0
:10260000FEF75DF80020FEF75AF8E320FEF763F8C6
:102610000520FEF754F80020FEF751F80A20FEF7D7
:102620004EF80020FEF74BF81C20FEF748F800207B
:1026300000E0FDE2FEF743F83320FEF740F800200B
:10264000FEF73DF84420FEF73AF80020FEF737F891
:102650005020FEF734F80020FEF731F86220FEF734
:102660002EF80020FEF72BF87820FEF728F800203F
:10267000FEF725F88820FEF722F80020FEF71FF865
:102680009720FEF71CF80020FEF719F8A620FEF7A9
:1026900016F80020FEF713F8B720FEF710F8002018
:1026A000FEF70DF8C220FEF70AF80020FEF707F843
:1026B000C720FEF704F80020FEF701F8D120FDF74F
:1026C000FEFF0020FDF7FBFFD520FDF7F8FF0020FF
:1026D000FDF7F5FFDD20FDF7F2FF0020FDF7EFFF2E
:1026E000F320FDF7ECFF0020FDF7E9FFE420FDF704
:1026F000F2FF0120FDF7E3FF0020FDF7E0FF0120DE
:10270000FDF7DDFF0020FDF7DAFF0220FDF7D7FF20
:102710000020FDF7D4FF2A20FDF7D1FF0020FDF7B0
:10272000CEFF3C20FDF7CBFF0020FDF7C8FF4B207C
:10273000FDF7C5FF0020FDF7C2FF5D20FDF7BFFFDD
:102740000020FDF7BCFF7420FDF7B9FF0020FDF766
:10275000B6FF8420FDF7B3FF0020FDF7B0FF932004
:10276000FDF7ADFF0020FDF7AAFFA220FDF7A7FFB0
:102770000020FDF7A4FFB320FDF7A1FF0020FDF727
:102780009EFFBE20FDF79BFF0020FDF798FFC420B1
:10279000FDF795FF0020FDF792FFCD20FDF78FFF9D
:1027A0000020FDF78CFFD320FDF789FF0020FDF707
:1027B00086FFDD20FDF783FF0020FDF780FFF3207B
:1027C000FDF77DFF0020FDF77AFFE520FDF783FF91
:1027D0000020FDF774FF0020FDF771FF0020FDF7DA
:1027E0006EFF0020FDF76BFF0220FDF768FF002061
:1027F000FDF765FF2920FDF762FF0020FDF75FFF71
:102800003C20FDF75CFF0020FDF759FF4B20FDF752
:1028100056FF0020FDF753FF5D20FDF750FF00201D
:10282000FDF74DFF7420FDF74AFF0020FDF747FF3D
:102830008420FDF744FF0020FDF741FF9320FDF7C2
:102840003EFF0020FDF73BFFA220FDF738FF0020F0
:10285000FDF735FFB320FDF732FF0020FDF72FFF16
:10286000BE20FDF72CFF0020FDF729FFC420FDF757
:1028700026FF0020FDF723FFCD20FDF720FF0020DD
:10288000FDF71DFFD320FDF71AFF0020FDF717FF0E
:10289000DC20FDF714FF0020FDF711FFF320FDF70A
:1028A0000EFF0020FDF70BFFE620FDF714FF1120BF
:1028B000FDF705FF0020FDF702FF3420FDF7FFFEC6
:1028C0000020FDF7FCFE5620FDF7F9FE0020FDF785
:1028D000F6FE7620FDF7F3FE0020FDF7F0FE7720F0
:1028E000FDF7EDFE0020FDF7EAFE6620FDF7E7FEAE
:1028F0000020FDF7E4FE8820FDF7E1FE0020FDF753
:10290000DEFE9920FDF7DBFE0020FDF7D8FEBB20A0
:10291000FDF7D5FE0020FDF7D2FE9920FDF7CFFE92
:102920000020FDF7CCFE6620FDF7C9FE0020FDF774
:10293000C6FE5520FDF7C3FE0020FDF7C0FE552062
:10294000FDF7BDFE0020FDF7BAFE4520FDF7B7FEFE
:102950000020FDF7B4FE4320FDF7B1FE0020FDF797
:10296000AEFE4420FDF7ABFE0020FDF7A8FEE720F9
:10297000FDF7B1FE3220FDF7A2FE0020FDF79FFE1D
:102980005520FDF79CFE0020FDF799FE7620FDF70F
:1029900096FE0020FDF793FE6620FDF790FE0020D6
:1029A000FDF78DFE6720FDF78AFE0020FDF787FE0C
:1029B0006720FDF784FE0020FDF781FE8720FDF7EC
:1029C0007EFE0020FDF77BFE9920FDF778FE0020BB
:1029D000FDF775FEBB20FDF772FE0020FDF76FFED0
:1029E0009920FDF76CFE0020FDF769FE7720FDF7CA
:1029F00066FE0020FDF763FE4420FDF760FE002028
:102A0000FDF75DFE5620FDF75AFE0020FDF757FE4C
:102A10002320FDF754FE0020FDF751FE3320FDF783
:102A20004EFE0020FDF74BFE4520FDF748FE00203E
:102A3000FDF745FEE820FDF74EFE0020FDF73FFEC6
:102A40000020FDF73CFE9920FDF739FE0020FDF740
:102A500036FE8720FDF733FE0020FDF730FE88208C
:102A6000FDF72DFE0020FDF72AFE7720FDF727FE5B
:102A70000020FDF724FE6620FDF721FE0020FDF773
:102A80001EFE8820FDF71BFE0020FDF718FEAA2081
:102A9000FDF715FE0020FDF712FEBB20FDF70FFE2F
:102AA0000020FDF70CFE9920FDF709FE0020FDF740
:102AB00006FE6620FDF703FE0020FDF700FE552010
:102AC000FDF7FDFD0020FDF7FAFD5520FDF7F7FDB0
:102AD0000020FDF7F4FD4420FDF7F1FD0020FDF797
:102AE000EEFD4420FDF7EBFD0020FDF7E8FD55204D
:102AF000FDF7E5FD0020FDF7E2FDE920FDF7EBFD28
:102B0000AA20FDF7DCFD0020FDF7D9FD0020FDF730
:102B1000D6FD0020FDF7D3FD0020FDF7DCFDAA2047
:102B2000FDF7CDFDCF20FDF7D6FD0020FDF7C7FD59
:102B30000020FDF7C4FD0020FDF7C1FD0020FDF7DA
:102B4000BEFD0020FDF7BBFD0020FDF7B8FD002015
:102B5000FDF7B5FD0020FDF7B2FD0020FDF7AFFD4C
:102B60000020FDF7ACFD0020FDF7A9FD0020FDF7DA
:102B7000A6FD0020FDF7A3FD0020FDF7A0FD00202D
:102B8000FDF79DFD0020FDF79AFD0020FDF797FD64
:102B9000F020FDF7A0FD0020FDF791FD5020FDF78E
:102BA0008EFD0020FDF78BFD0020FDF788FD002045
:102BB000FDF785FDF320FDF78EFD0020FDF77FFD7D
:102BC000F920FDF788FD0620FDF779FD1020FDF7BF
:102BD00076FD2920FDF773FD0020FDF770FD3A20FA
:102BE000FDF779FD5520FDF76AFD1120FDF773FD16
:102BF000642006F01CFA2920FDF76DFD3520FDF755
:102C00006AFD0020FDF75BFD5120FDF764FDFF200C
:102C1000FDF755FD5320FDF75EFD2C20FDF74FFD20
:102C20005520FDF758FD8220FDF749FD2C20FDE3DE
:102C3000A0427CD14FF4704355211846FDF739FD71
:102C40004FF20104AA212046FDF733FD651C5221F5
:102C50002846FDF72EFDA61C08213046FDF729FD6C
:102C6000E71C01213846FDF724FD0D214FF43040CB
:102C7000FDF71FFD0D214BF20100FDF71AFD0D219F
:102C80004BF20200FDF715FD4FF4364C342160463F
:102C9000FDF70FFD34214BF20160FDF70AFD3421F1
:102CA0004BF20260FDF705FD4FF431480D2140461F
:102CB000FDF7FFFC4BF201190D214846FDF7F9FC29
:102CC0000D214BF20210FDF7F4FC4FF4374B342189
:102CD0005846FDF7EEFC34214BF20170FDF7E9FC9C
:102CE00034214BF20270FDF7E4FC00214FF4324036
:102CF000FDF7DFFC00214BF20120FDF7DAFC00219B
:102D00004BF20220FDF7D5FC24214FF43840FDF7AB
:102D1000D0FC24214BF60100FDF7CBFC24214BF61F
:102D20000200FDF7C6FC01214FF43F4000E0FCE348
:102D3000FDF7BFFC0F214FF43340FDF7BAFC0F2124
:102D40004BF20130FDF7B5FC0F214BF20230FDF7DD
:102D5000B0FC34214FF43940FDF7ABFC34214BF685
:102D60000110FDF7A6FC34214BF60210FDF7A1FC83
:102D700008214FF43540FDF79CFC08214BF201502F
:102D8000FDF797FC08214BF20250FDF792FC03215E
:102D90004FF44240FDF78DFC24214FF43A40FDF7FB
:102DA00088FC24214BF60120FDF783FC24214BF6FF
:102DB0000220FDF77EFC00214FF43C40FDF779FC3A
:102DC00078214BF60140FDF774FC00214BF60240E0
:102DD000FDF76FFC00214FF43D40FDF76AFC7821C0
:102DE0004BF60150FDF765FC00214BF60250FDF754
:102DF00060FC00214FF43E40FDF75BFC64214BF684
:102E00000160FDF756FC00214FF45140FDF751FCE5
:102E100033214DF20110FDF74CFC00214DF2021060
:102E2000FDF747FC34214DF20310FDF742FC002171
:102E30004DF20410FDF73DFC3A214DF20510FDF76F
:102E400038FC00214DF20610FDF733FC4A214DF20B
:102E50000710FDF72EFC00214DF20810FDF729FCAC
:102E60005C214DF20910FDF724FC00214DF20A10FF
:102E7000FDF71FFC81214DF20B10FDF71AFC00211C
:102E80004DF20C10FDF715FCA6214DF20D10FDF7CB
:102E900010FC00214DF20E10FDF70BFCE5214DF268
:102EA0000F10FDF706FC01214DF21010FDF701FC9B
:102EB00013214DF21110FDF7FCFB01214DF2121010
:102EC000FDF7F7FB54214DF21310FDF7F2FB012142
:102ED0004DF21410FDF7EDFB82214DF21510FDF7B8
:102EE000E8FB01214DF21610FDF7E3FBCA214DF27C
:102EF0001710FDF7DEFB02214DF21810FDF7D9FB8C
:102F000000214DF21910FDF7D4FB02214DF21A10E9
:102F1000FDF7CFFB01214DF21B10FDF7CAFB02218B
:102F20004DF21C10FDF7C5FB34214DF21D10FDF7CD
:102F3000C0FB02214DF21E10FDF7BBFB67214DF2D5
:102F40001F10FDF7B6FB02214DF22010FDF7B1FB7B
:102F500084214DF22110FDF7ACFB02214DF222102D
:102F6000FDF7A7FBA4214DF22310FDF7A2FB0221E0
:102F70004DF22410FDF79DFBB7214DF22510FDF712
:102F800098FB02214DF22610FDF793FBCF214DF265
:102F90002710FDF78EFB02214DF22810FDF789FB6B
:102FA000DE214DF22910FDF784FB02214DF22A109B
:102FB000FDF77FFBF2214DF22B10FDF77AFB02218A
:102FC0004DF22C10FDF775FBFE214DF22D10FDF793
:102FD00070FB03214DF22E10FDF76BFB10214DF21B
:102FE0002F10FDF766FB03214DF23010FDF761FB5A
:102FF00033214DF23110FDF75CFB03214DF232100D
:10300000FDF757FB6D214DF23310FDF752FB002108
:103010004FF45240FDF74DFB33214DF20120FDF7F7
:1030200048FB00214DF20220FDF743FB34214DF215
:103030000320FDF73EFB00214DF20420FDF739FB94
:103040003A214DF20520FDF734FB00214DF2062018
:10305000FDF72FFB4A214DF20720FDF72AFB002147
:103060004DF20820FDF725FB5C214DF20920FDF70C
:1030700020FB00214DF20A20FDF71BFB81214DF2C0
:103080000B20FDF716FB00214DF20C20FDF711FB84
:10309000A6214DF20D20FDF70CFB00214DF20E2074
:1030A000FDF707FBE5214DF20F20FDF702FB0121A3
:1030B0004DF21020FDF7FDFA13214DF21120FDF71E
:1030C000F8FA01214DF21220FDF7F3FA54214DF2E6
:1030D0001320FDF7EEFA01214DF21420FDF7E9FA75
:1030E00082214DF21520FDF7E4FA01214DF2162060
:1030F000FDF7DFFACA214DF21720FDF7DAFA0221B7
:103100004DF21820FDF7D5FA00214DF21920FDF7F8
:10311000D0FA02214DF21A20FDF7CBFA01214DF22F
:103120001B20FDF7C6FA02214DF21C20FDF7C1FA63
:1031300034214DF21D20FDF7BCFA02214DF21E2074
:10314000FDF7B7FA67214DF21F20FDF7B2FA022111
:103150004DF22020FDF7ADFA84214DF22120FDF73C
:10316000A8FA02214DF22220FDF7A3FAA4214DF284
:103170002320FDF79EFA02214DF22420FDF799FA53
:10318000B7214DF22520FDF794FA02214DF22620B9
:10319000FDF78FFACF214DF22720FDF78AFA0221A1
:1031A0004DF22820FDF785FADE214DF22920FDF7AA
:1031B00080FA02214DF22A20FDF77BFAF2214DF22E
:1031C0002B20FDF776FA02214DF22C20FDF771FA43
:1031D000FE214DF22D20FDF76CFA03214DF22E2039
:1031E000FDF767FA10214DF22F20FDF762FA032157
:1031F0004DF23020FDF75DFA33214DF23120FDF71D
:1032000058FA03214DF23220FDF753FA6D214DF2A9
:103210003320FDF74EFA00214FF45340FDF749FAF1
:1032200033214DF20130FDF744FA00214DF2023016
:10323000FDF73FFA34214DF20330FDF73AFA002151
:103240004DF20430FDF735FA3A214DF20530FDF725
:1032500030FA00214DF20630FDF72BFA4A214DF2EB
:103260000730FDF726FA00214DF20830FDF721FA6C
:103270005C214DF20930FDF71CFA00214DF20A30B5
:10328000FDF717FA81214DF20B30FDF712FA0021FC
:103290004DF20C30FDF70DFAA6214DF20D30FDF781
:1032A00008FA00214DF20E30FDF703FAE5214DF248
:1032B0000F30FDF7FEF901214DF21030FDF7F9F95D
:1032C00013214DF21130FDF7F4F901214DF21230C6
:1032D000FDF7EFF954214DF21330FDF7EAF9012122
:1032E0004DF21430FDF7E5F982214DF21530FDF76E
:1032F000E0F901214DF21630FDF7DBF9CA214DF25C
:103300001730FDF7D6F902214DF21830FDF7D1F94B
:1033100000214DF21930FDF7CCF902214DF21A309F
:10332000FDF7C7F901214DF21B30FDF7C2F902216B
:103330004DF21C30FDF7BDF934214DF21D30FDF783
:10334000B8F902214DF21E30FDF7B3F967214DF2B5
:103350001F30FDF7AEF902214DF22030FDF7A9F93B
:1033600084214DF22130FDF7A4F902214DF22230E3
:10337000FDF79FF9A4214DF22330FDF79AF90221C0
:103380004DF22430FDF795F9B7214DF22530FDF7C8
:1033900090F902214DF22630FDF78BF9CF214DF245
:1033A0002730FDF786F902214DF22830FDF781F92B
:1033B000DE214DF22930FDF77CF902214DF22A3051
:1033C000FDF777F9F2214DF22B30FDF772F902216A
:1033D0004DF22C30FDF76DF9FE214DF22D30FDF749
:1033E00068F903214DF22E30FDF763F910214DF2FB
:1033F0002F30FDF75EF903214DF23030FDF759F91A
:1034000033214DF23130FDF754F903214DF23230C2
:10341000FDF74FF96D214DF23330FDF74AF90021E8
:103420004FF45440FDF745F9332100E07FE34DF2BE
:103430000140FDF73EF900214DF20240FDF739F958
:1034400034214DF20340FDF734F900214DF20440E0
:10345000FDF72FF93A214DF20540FDF72AF9002139
:103460004DF20640FDF725F94A214DF20740FDF7E0
:1034700020F900214DF20840FDF71BF95C214DF2C7
:103480000940FDF716F900214DF20A40FDF711F948
:1034900081214DF20B40FDF70CF900214DF20C405B
:1034A000FDF707F9A6214DF20D40FDF702F90021C5
:1034B0004DF20E40FDF7FDF8E5214DF20F40FDF70E
:1034C000F8F801214DF21040FDF7F3F813214DF209
:1034D0001140FDF7EEF801214DF21240FDF7E9F839
:1034E00054214DF21340FDF7E4F801214DF2144050
:1034F000FDF7DFF882214DF21540FDF7DAF80121E2
:103500004DF21640FDF7D5F8CA214DF21740FDF7F0
:10351000D0F802214DF21840FDF7CBF800214DF212
:103520001940FDF7C6F8022100E003E34DF21A400E
:10353000FDF7BFF801214DF21B40FDF7BAF802215B
:103540004DF21C40FDF7B5F834214DF21D40FDF75A
:10355000B0F802214DF21E40FDF7ABF867214DF2A5
:103560001F40FDF7A6F802214DF22040FDF7A1F81B
:1035700084214DF22140FDF79CF802214DF22240BA
:10358000FDF797F8A4214DF22340FDF792F80221B0
:103590004DF22440FDF78DF8B7214DF22540FDF79F
:1035A00088F802214DF22640FDF783F8CF214DF235
:1035B0002740FDF77EF802214DF22840FDF779F80B
:1035C000DE214DF22940FDF774F802214DF22A4028
:1035D000FDF76FF8F2214DF22B40FDF76AF802215A
:1035E0004DF22C40FDF765F8FE214DF22D40FDF720
:1035F00060F803214DF22E40FDF75BF810214DF2EB
:103600002F40FDF756F803214DF23040FDF751F8F9
:1036100033214DF23140FDF74CF803214DF2324099
:10362000FDF747F86D214DF23340FDF742F80021D8
:103630004FF45540FDF73DF833214DF20150FDF7B1
:1036400038F800214DF20250FDF733F834214DF2E5
:103650000350FDF72EF800214DF20450FDF729F834
:103660003A214DF20550FDF724F800214DF20650A5
:10367000FDF71FF84A214DF20750FDF71AF8002117
:103680004DF20850FDF715F85C214DF20950FDF799
:1036900010F800214DF20A50FDF70BF881214DF290
:1036A0000B50FDF706F800214DF20C50FDF701F824
:1036B000A6214DF20D50FCF7FCFF00214DF20E50FB
:1036C000FCF7F7FFE5214DF20F50FCF7F2FF012167
:1036D0004DF21050FCF7EDFF13214DF21150FCF7A5
:1036E000E8FF01214DF21250FCF7E3FF54214DF2A7
:1036F0001350FCF7DEFF01214DF21450FCF7D9FF07
:1037000082214DF21550FCF7D4FF01214DF21650E5
:10371000FCF7CFFFCA214DF21750FCF7CAFF022178
:103720004DF21850FCF7C5FF00214DF21950FCF77F
:10373000C0FF02214DF21A50FCF7BBFF01214DF2F0
:103740001B50FCF7B6FF02214DF21C50FCF7B1FFF5
:1037500034214DF21D50FCF7ACFF02214DF21E50FA
:10376000FCF7A7FF67214DF21F50FCF7A2FF0221D3
:103770004DF22050FCF79DFF84214DF22150FCF7C3
:1037800098FF02214DF22250FCF793FFA4214DF245
:103790002350FCF78EFF02214DF22450FCF789FFE5
:1037A000B7214DF22550FCF784FF02214DF226503F
:1037B000FCF77FFFCF214DF22750FCF77AFF022163
:1037C0004DF22850FCF775FFDE214DF22950FCF731
:1037D00070FF02214DF22A50FCF76BFFF2214DF2EF
:1037E0002B50FCF766FF02214DF22C50FCF761FFD5
:1037F000FE214DF22D50FCF75CFF03214DF22E50BF
:10380000FCF757FF10214DF22F50FCF752FF032118
:103810004DF23050FCF74DFF33214DF23150FCF7A3
:1038200048FF03214DF23250FCF743FF6D214DF26A
:103830003350FCF73EFF00214FF45640FCF739FFB0
:1038400033214DF20160FCF734FF00214DF202609C
:10385000FCF72FFF34214DF20360FCF72AFF002113
:103860004DF20460FCF725FF3A214DF20560FCF7AC
:1038700020FF00214DF20660FCF71BFF4A214DF2AC
:103880000760FCF716FF00214DF20860FCF711FFFE
:103890005C214DF20960FCF70CFF00214DF20A603B
:1038A000FCF707FF81214DF20B60FCF702FF0021BE
:1038B0004DF20C60FCF7FDFEA6214DF20D60FCF709
:1038C000F8FE00214DF20E60FCF7F3FEE5214DF20B
:1038D0000F60FCF7EEFE01214DF21060FCF7E9FEEF
:1038E00013214DF21160FCF7E4FE01214DF212604C
:1038F000FCF7DFFE54214DF21360FCF7DAFE0121E4
:103900004DF21460FCF7D5FE82214DF21560FCF7F4
:10391000D0FE01214DF21660FCF7CBFECA214DF21C
:103920001760FCF7C6FE02214DF21860FCF7C1FEDD
:1039300000214DF21960FCF7BCFE02214DF21A6025
:10394000FCF7B7FE01214DF21B60FCF7B2FE02212D
:103950004DF21C60FCF7ADFE34214DF21D60FCF70A
:10396000A8FE02214DF21E60FCF7A3FE67214DF276
:103970001F60FCF79EFE02214DF22060FCF799FECD
:1039800084214DF22160FCF794FE02214DF2226069
:10399000FCF78FFEA4214DF22360FCF78AFE022182
:1039A0004DF22460FCF785FEB7214DF22560FCF74F
:1039B00080FE02214DF22660FCF77BFECF214DF206
:1039C0002760FCF776FE02214DF22860FCF771FEBD
:1039D000DE214DF22960FCF76CFE02214DF22A60D7
:1039E000FCF767FEF2214DF22B60FCF762FE02212C
:1039F0004DF22C60FCF75DFEFE214DF22D60FCF7D0
:103A000058FE03214DF22E60FCF753FE10214DF2BB
:103A10002F60FCF74EFE03214DF23060FCF749FEAB
:103A200033214DF23160FCF744FE03214DF2326048
:103A3000FCF73FFE6D214DF23360FCF73AFE552155
:103A40001846FCF736FEAA212046FCF732FE52212A
:103A50002846FCF72EFE08213046FCF72AFE0021FE
:103A60003846FCF726FECC214046FCF722FE00211A
:103A70004846FCF71EFE05216046FCF71AFE702141
:103A80005846FCF716FE70214BF20170FCF711FE50
:103A900001214FF43840FCF70CFE03214BF60100E6
:103AA000FCF707FE03214BF60200FCF702FE0321A0
:103AB0004BF60300FCF7FDFD02214FF43C40FCF700
:103AC000F8FD00214BF60140FCF7F3FD00214BF619
:103AD0000240FCF7EEFDD0214FF44940FCF7E9FD30
:103AE00002214CF60110FCF7E4FD50214CF60210C7
:103AF000FCF7DFFD50214CF60310FCF7DAFD5021F6
:103B00004CF60410FCF7D5FD00214FF45450FCF79F
:103B1000D0FD55214FF46850FCF7CBFD4FF4885091
:103B2000FCF7D9FD782005F054FA4FF42450FCF747
:103B3000D2FDF3E0A0F513414FF480744FF4E06937
:103B400040F2022B4FF4274625397CD040F207750E
:103B5000C91E79D04FF488774FF41C56083174D0C1
:103B6000113973D0A0F5A841083970D0A0F5A8513B
:103B70004FF4407705396BD0B1F5204169D0B1F5EC
:103B8000805167D0A0F58A4131397CD0091F7BD0A4
:103B90004045CED1E220FCF79EFD1D20FCF78FFDB5
:103BA0000220FCF78CFD0420FCF789FD642005F061
:103BB00010FAE020FCF78FFD0120FCF780FD0A20C1
:103BC00005F035FAE020FCF786FD0320FCF777FDD1
:103BD0000C2005F02CFA0120FCF77DFD0A2005F0F1
:103BE00026FAE620FCF777FD2F20FCF768FDFF2082
:103BF000FCF765FDFF20FCF762FDB020FCF76BFDD4
:103C00002020FCF75CFD0020FCF759FD0320FCF7A9
:103C100056FD40F21F30FCF752FD0120FCF74FFD2E
:103C200040F2DF10FCF74BFD0020FCF748FDB4200C
:103C3000FCF751FD0420FCF742FD40F21F40FCF769
:103C40003EFD002007E076E041E1F9E1A0E275E306
:103C5000FEE3FEE3FEE3FCF732FD2E20FCF72FFD32
:103C60000020FCF72CFD0020FCF729FD0020FCF7CC
:103C700026FD0020FCF723FDB620FCF72CFD0220DA
:103C8000FCF71DFD01E0E6E3E6E34FF40370FCF70B
:103C900016FD0020FCF713FD1720FCF710FD152082
:103CA000FCF70DFD0020FCF70AFD0020FCF707FDE6
:103CB000F020FCF710FD0320FCF701FD2920FCF7A4
:103CC0000AFDD020FCF707FD0020FCF7F8FCBE2021
:103CD000FCF701FD0520FCF7F2FCFE20FCF7EFFCF1
:103CE0000120FCF7ECFC0020FCF7E9FC0020FCF7CD
:103CF000E6FC0020FCF7E3FCB820FCF7ECFC03201A
:103D0000FCF7DDFC0120FCF7DAFCBA20FCF7E3FC51
:103D10000120FCF7D4FC6420FDF7A9FA0020FDF790
:103D2000CAFAFF490120C1F8BC025046FCF77FFDEA
:103D300021B0BDE8F08F47F6F001E520FCF7B9FCB3
:103D400021460120FCF7B5FC49460220FCF7B1FCF6
:103D500041F230010320FCF7ACFC00210420FCF709
:103D6000A8FC59460820FCF7A4FC00210920FCF718
:103D7000A0FC00210A20FCF79CFC00210C20FCF791
:103D800098FC00210D20FCF794FC00210F20FCF78B
:103D900090FC00211020FCF78CFC07211120FCF77F
:103DA00088FC00211220FCF784FC00211320FCF782
:103DB00080FC00210720FCF77CFC41F29061102080
:103DC000FCF777FC40F227211120FCF772FC9D21C3
:103DD0001220FCF76EFC4FF4C8511320FCF769FC6D
:103DE00025212920FCF765FC0D212B20FCF761FC27
:103DF00007213020FCF75DFC40F203313120FCF755
:103E000058FC03213220FCF754FC40F206213520F7
:103E1000FCF74FFC08213620FCF74BFC40F2064132
:103E20003720FCF746FC4FF441713820FCF741FC89
:103E300007213920FCF73DFC40F202613C20FCF7F1
:103E400038FC08213D20FCF734FC00215020FCF711
:103E500030FCEF215120FCF72CFC00215220FCF714
:103E600028FC40F23F115320FCF723FC3146602030
:103E7000FCF71FFC01216120FCF71BFC00216A20DC
:103E8000FCF717FC00218020FCF713FC00218120A7
:103E9000FCF70FFC00218220FCF70BFC00218320A3
:103EA000FCF707FC00218420FCF703FC002185209F
:103EB000FCF7FFFB10219020FCF7FBFB4FF4C061E7
:103EC0009220FCF7F6FB40F233110720FDE341F2AC
:103ED0008F01EC20FCF7EDFB41F23421EF20FCF7E1
:103EE000E8FB21460120FCF7E4FB49460220FCF7F1
:103EF000E0FB41F230010320FCF7DBFB0021042052
:103F0000FCF7D7FB59460820FCF7D3FB002109201A
:103F1000FCF7CFFB00210A20FCF7CBFB01210C2092
:103F2000FCF7C7FB00210D20FCF7C3FB00210F208D
:103F3000FCF7BFFB00211020FCF7BBFB0721112081
:103F4000FCF7B7FB00211220FCF7B3FB0021132084
:103F5000FCF7AFFB01210720FCF7ABFB322005F09B
:103F600066F841F290411020FCF7A3FB40F22721B4
:103F70001120FCF79EFB322005F059F88A2112200F
:103F8000FCF797FB322005F052F84FF4D051132084
:103F9000FCF78FFB06212920FCF78BFB0D212B2042
:103FA000FCF787FB322005F042F800212020FCF7C7
:103FB00080FB00212120FCF77CFB322005F037F844
:103FC00000213020FCF775FB40F204613120FCF742
:103FD00070FB40F205313220FCF76BFB00213520ED
:103FE000FCF767FB40F609413620FCF762FB4FF413
:103FF00001713720FCF75DFB40F201313820FCF7FE
:1040000058FB29463920FCF754FB00213C20FCF7E3
:1040100050FB40F60A213D20FCF74BFB322005F017
:1040200006F800215020FCF744FBEF215120FCF75B
:1040300040FB00215220FCF73CFB40F23F114EE1D7
:1040400000210846FCF735FB21460120FCF731FB37
:1040500049460220FCF72DFB41F230010320FCF71A
:1040600028FB00210420FCF724FB59460820FCF71C
:1040700020FB00210920FCF71CFB00210A20FCF793
:1040800018FB01210C20FCF714FB00210D20FCF78C
:1040900010FB00210F20FCF70CFB322004F0C7FFBF
:1040A00040F201110720FCF704FB322004F0BFFFAF
:1040B0004FF486511020FCF7FCFA07211120FCF781
:1040C000F8FA39461220FCF7F4FA4FF43061132065
:1040D000FCF7EFFA00212920FCF7EBFA44F210017B
:1040E0002B20FCF7E6FA00215020FCF7E2FAEF2142
:1040F0005120FCF7DEFA00215220FCF7DAFA40F2F8
:104100003F115320FCF7D5FA31466020FCF7D1FA75
:1041100001216120FCF7CDFA00216A2002E00000B5
:1041200000804042FCF7C5FA00218020FCF7C1FA6C
:1041300000218120FCF7BDFA00218220FCF7B9FAAA
:1041400000218320FCF7B5FA00218420FCF7B1FAA6
:1041500000218520FCF7ADFA10219020FCF7A9FA88
:1041600000219220FCF7A5FA01219320FCF7A1FA87
:1041700039469520FCF79DFA00219720FCF799FA23
:1041800000219820FCF795FA40F2731107207EE396
:1041900041F21401E720FCF78CFA21460120FCF7DC
:1041A00088FA4FF400710220FCF783FA41F23801DB
:1041B0000320FCF77EFA59460820FCF77AFA002122
:1041C0000920FCF776FA00210A20FCF772FA002198
:1041D0000C20FCF76EFA00210D20FCF76AFA002192
:1041E0000F20FCF766FA00211020FCF762FA072185
:1041F0001120FCF75EFA00211220FCF75AFA002188
:104200001320FCF756FAC82004F011FF41F2906128
:104210001020FCF74EFA40F227211120FCF749FA52
:10422000322004F004FF0C211220FCF742FA322065
:1042300004F0FDFE4FF400611320FCF73AFA11215F
:104240002920FCF736FA0B212B20FCF732FA32201A
:1042500004F0EDFE00212020FCF72BFA40F23F1382
:1042600019462120FCF725FA00213020FCF721FA1D
:104270004FF4837421463120FCF71BFA00213220D1
:10428000FCF717FA4FF401713520FCF712FA41F2EE
:104290000A613620FCF70DFA29463720FCF709FAA7
:1042A00021463820FCF705FA29463920FCF701FAA7
:1042B00040F202413C20FCF7FCF940F60F413D2062
:1042C000FCF7F7F900215020FCF7F3F9EF2151201A
:1042D000FCF7EFF900215220FCF7EBF919465320C7
:1042E000FCF7E7F931466020FCF7E3F90121612092
:1042F000FCF7DFF900216A20FCF7DBF900218020C0
:10430000FCF7D7F900218120FCF7D3F900218220A6
:10431000FCF7CFF900218320FCF7CBF900218420A2
:10432000FCF7C7F900218520FCF7C3F91021902084
:10433000FCF7BFF94FF4C0619220FDE32146012054
:10434000FCF7B7F949460220FCF7B3F941F2300116
:104350000320FCF7AEF900210420FCF7AAF940F293
:1043600007210820FCF7A5F900210920FCF7A1F995
:1043700000210A20FCF79DF900210C20FCF799F997
:1043800000210D20FCF795F900210F20FCF791F991
:10439000142004F04CFE41F2B0611020FCF789F9C2
:1043A00001211120FCF785F901211720FCF781F983
:1043B0004FF49C711220FCF77CF94FF4006113203C
:1043C000FCF777F909212920FCF773F909212A2044
:1043D000FCF76FF90021A420FCF76BF900215020B5
:1043E000FCF767F9EF215120FCF763F90021522017
:1043F000FCF75FF940F23F115320FCF75AF93146C0
:104400006020FCF756F901216120FCF752F90021E8
:104410006A20FCF74EF900218020FCF74AF90021C0
:104420008120FCF746F900218220FCF742F90021A7
:104430008320FCF73EF900218420FCF73AF90021A3
:104440008520FCF736F913219020FCF732F904E0BF
:1044500016E020E11CE2E3E298E300219220FCF761
:1044600028F903219320FCF724F939469520FCF71D
:1044700020F940F273110720FCF71BF9322006E106
:1044800000210720FCF715F9322004F0D0FD4FF48D
:104490008E711220FCF70DF90121A420FCF709F917
:1044A0000F210820FCF705F908210A20FCF701F983
:1044B00008210D20FCF7FDF829463020FCF7F9F81B
:1044C00007213120FCF7F5F840F203613220FCF7B8
:1044D000F0F849463320FCF7ECF859463420FCF755
:1044E000E8F802213520FCF7E4F841F60F71362098
:1044F000FCF7DFF829463720FCF7DBF800213820ED
:10450000FCF7D7F800213920FCF7D3F829463A20E8
:10451000FCF7CFF800213B20FCF7CBF807213C202B
:10452000FCF7C7F800213D20FCF7C3F8322004F067
:104530007EFD01210720FCF7BCF801211720FCF7C4
:10454000B8F8322004F073FD4FF4BD511020FCF791
:10455000B0F840F217211120FCF7ABF84FF48F713F
:104560001220FCF7A6F84FF470611320FCF7A1F8B5
:1045700000212A20FCF79DF80A212920FCF799F850
:104580004FF49F711220FCF794F800215020FCF7A3
:1045900090F8EF215120FCF78CF800215220FCF715
:1045A00088F840F23F115320FCF783F83146602031
:1045B000FCF77FF801216120FCF77BF800216A20DD
:1045C000FCF777F800218020FCF773F800218120A8
:1045D000FCF76FF800218220FCF76BF800218320A4
:1045E000FCF767F800218420FCF763F800218520A0
:1045F000FCF75FF813219020FCF75BF83946922016
:10460000FCF757F805219320FCF753F8002195207B
:10461000FCF74FF800219720FCF74BF80021982079
:10462000FCF747F821460120FCF743F849460220F1
:10463000FCF73FF841F238010320FCF73AF800217B
:104640000420FCF736F800210C20FCF732F800219A
:104650000F20FCF72EF800212020FCF72AF800217B
:104660002120FCF726F821210720FCF722F814204E
:1046700004F0DDFC61210720FCF71BF8142004F096
:10468000D6FC40F273110720FCF713F8142004F055
:10469000CEFCFFF743BB00210846FCF70AF80021D7
:1046A0000846FCF706F800210846FCF702F800214E
:1046B0000846FBF7FEFF0121A420FBF7FAFF1420B8
:1046C00004F0B5FC3146602000E0DCE0FBF7F1FFD0
:1046D0005D4659460820FBF7ECFF4FF4057130208A
:1046E000FBF7E7FF43F215713120FBF7E2FF40F2E1
:1046F00004613220FBF7DDFF40F616613320FBF743
:10470000D8FF42F211213420FBF7D3FF4FF4A85118
:104710003520FBF7CEFF48F207513620FBF7C9FFE3
:1047200041F207413720FBF7C4FF41F20341382033
:10473000FBF7BFFF20213920FBF7BBFF1A21902098
:10474000FBF7B7FF00211020FBF7B3FF0721112073
:10475000FBF7AFFF00211220FBF7ABFF0021132076
:10476000FBF7A7FF142004F062FC4FF4E661102071
:10477000FBF79FFF40F237111120FBF79AFF14203F
:1047800004F055FC4FF4DC711220FBF792FF14206B
:1047900004F04DFC4FF470611320FBF78AFF802179
:1047A0002A20FBF786FF48212920FBF782FF1420EF
:1047B00004F03DFC21460120FBF77BFF4946022027
:1047C000FBF777FF41F238010320FBF772FF294620
:1047D0000820FBF76EFF00210A20FBF76AFF00218B
:1047E0000C20FBF766FF00210D20FBF762FF302154
:1047F0000E20FBF75EFF00215020FBF75AFFEF2150
:104800005120FBF756FF00215220FBF752FF40F2E8
:104810003F115320FBF74DFF31466020FBF749FF66
:1048200001216120FBF745FF00216A20FBF741FFD2
:1048300011219020FBF73DFF4FF4C0619220FBF760
:1048400038FF40F202419320FBF733FF022194200E
:10485000FBF72FFF142004F0EAFB01210720FBF7F0
:1048600028FF142004F0E3FB61210720FBF721FF60
:1048700040F273110720FBF71CFF00212020FBF7FB
:1048800018FF00212120FBF714FF222100207AE1EC
:1048900000210846FBF70DFF00210846FBF709FF42
:1048A000142004F0C4FB00210846FBF702FF00219E
:1048B0000846FBF7FEFE00210846FBF7FAFE002142
:1048C0000846FBF7F6FE0121A420FBF7F2FE1420B8
:1048D00004F0ADFB31466020FBF7EBFE40F606012D
:1048E0000820FBF7E6FE40F2037319463020FBF781
:1048F000E0FE01213120FBF7DCFE04213220FBF732
:10490000D8FE4FF481713320FBF7D3FE39463420B3
:10491000FBF7CFFE40F203113520FBF7CAFE1F2143
:104920003620FBF7C6FE19463720FBF7C2FE0121F1
:104930003820FBF7BEFE04213920FBF7BAFE152113
:104940009020FBF7B6FE4FF482611020FBF7B1FE1A
:1049500040F247211120FBF7ACFE4FF4DE7112202C
:10496000FBF7A7FE4FF460611320FBF7A2FE78204F
:1049700004F05DFB21460120FBF79BFE4FF4007124
:104980000220FBF796FE41F230010320FBF791FE77
:1049900008210A20FBF78DFE00210C20FBF789FE81
:1049A00020210E20FBF785FE00210F20FBF781FE62
:1049B00000212020FBF77DFE00212120FBF779FE5E
:1049C0003D212A20FBF775FE142004F030FB2D2139
:1049D0002920FBF76EFE00215020FBF76AFE4DF206
:1049E000EF015120FBF765FE00215220FBF761FE2D
:1049F00040F23F115320FBF75CFE00216120FBF7E2
:104A000058FE00216A20FBF754FE39469220FBF73E
:104A100050FE05219320FBF74CFE2146FFF7B6BB65
:104A200001210020FBF745FE0A2004F000FB41F2C3
:104A300028611020FBF73DFE0E211220FBF739FE06
:104A400040F639211320FBF734FE0A2004F0EFFA78
:104A500040211120FBF72DFE50211520FBF729FEE8
:104A60000A2004F0E4FA1E211220FBF722FE0A209D
:104A700004F0DDFA4FF4B1511020FBF71AFE42F6B4
:104A800039211320FBF715FE0A2004F0D0FA214645
:104A90000120FBF70EFE39460220FBF70AFE41F229
:104AA00038010320FBF705FE59460820FBF701FEFD
:104AB00008210A20FBF7FDFD00213020FBF7F9FD5E
:104AC00040F202413120FBF7F4FD4FF483713220B4
:104AD000FBF7EFFD40F203513320FBF7EAFD4FF403
:104AE00082713420FBF7E5FD40F201313520FBF700
:104AF000E0FD29463620FBF7DCFD40F2053137208A
:104B0000FBF7D7FD4FF402713820FBF7D2FD40F6DA
:104B10000B713920FBF7CDFD02214120FBF7C9FDC8
:104B200031466020FBF7C5FD01216120FBF7C1FD87
:104B30004FF40471902000E0CAE0FBF7BAFD4FF497
:104B400085719220FBF7B5FD04219320FBF7B1FDA1
:104B50002146A020FBF7ADFD01210720FBF7A9FDB1
:104B600021210720FBF7A5FD23210720FBF7A1FD4D
:104B700033210720FBF79DFD40F233110720FBF79F
:104B800098FD0021A020FBF794FD82E5302115203F
:104B9000FBF78FFD10219A20FBF78BFD20211120C0
:104BA000FBF787FD43F228411020FBF782FD02212D
:104BB0001220FBF77EFD41F238011320FBF779FD4F
:104BC000282004F034FA12210846FBF772FD282051
:104BD00004F02DFA43F220411020FBF76AFD43F266
:104BE00038011320FBF765FD462004F020FA002170
:104BF0003020FBF75EFD40F202413120FBF759FD0A
:104C000040F207313220FBF754FD4FF4417133205D
:104C1000FBF74FFD04213420FBF74BFD40F201412F
:104C20003520FBF746FD29463620FBF742FD40F2D2
:104C300005313720FBF73DFD4FF4C263194638209C
:104C4000FBF737FD19463920FBF733FD21460120DC
:104C5000FBF72FFD39460220FBF72BFD41F2300117
:104C60000320FBF726FD40F608010820FBF721FD95
:104C700008210A20FBF71DFD31466020FBF719FDD6
:104C800001216120FBF715FD4FF49F719020FBF788
:104C900010FD21469220FBF70CFD21469320FBF7E7
:104CA00008FD4FF44051A020FBF703FD1021A32085
:104CB000FBF7FFFC01210720FBF7FBFC212107206C
:104CC000FBF7F7FC23210720FBF7F3FC3321072038
:104CD000FBF7EFFC40F23311A0E62DE9F0478246E6
:104CE000A2EB0A00401C0E4685B2981B401C87B2FE
:104CF00000244FF0D849DDF8208015E0301981B24A
:104D00005046FBF7F4FCFBF7CDFC0020494607E0DA
:104D100004FB050338F81320A1F88020401C80B262
:104D2000A842F5D3641CA4B2BC42E7D3BDE8F08727
:104D30002DE9FE4F0026A2EB000882465F1A701E86
:104D400035468946B8F1000F02DD4FF0010102E05F
:104D500003D14FF00001019102E0C8F10008019079
:104D6000002F02DD4FF0010002E003D14FF0000000
:104D7000009002E0C7F1000700904046B84501DD11
:104D8000044600E03C46601C4FF0000B029015E02A
:104D90001FFA89F11FFA8AF0FCF7D9F946443D441D
:104DA000A64202DD0199361B8A44A54202DD009924
:104DB0002D1B89440BF101001FFA80FB02998B45E2
:104DC000E6DDBDE8FE8FF0B51C4615460E460746EB
:104DD0000B46FFF7ADFF3A46234631461046FFF734
:104DE000A7FF23462A4619463846FFF7A1FF2A4661
:104DF00023463146BDE8F040104699E72DE9FC4FC7
:104E000080460024154603200F46A0EB450649E0E6
:104E1000781B81B208EB040A01901FFA8AF0FCF7B4
:104E200096F9381B81B208EB050900901FFA89F04A
:104E3000FCF78DF907EB040B1FFA8BF11FFA89F0D1
:104E4000FCF785F907EB05091FFA89F11FFA8AF0CB
:104E5000FCF77DF9A8EB040A1FFA89F11FFA8AF022
:104E6000FCF775F9A8EB05091FFA8BF11FFA89F019
:104E7000FCF76DF9019881B21FFA8AF0FCF767F927
:104E8000009881B21FFA89F0FCF761F9641C002ECA
:104E900003DA06EB8406B61D04E0601B06EB800611
:104EA0006D1E0A36AC42B3DDBDE8FC8F2DE9F84F2C
:104EB00082461F460C468B46580700D0012000EB67
:104EC000D700790810FB01F0203AC0B202F0FF09C8
:104ED0000026009041E00C2F10D0102F12D0182F78
:104EE0003ED1774909EBC90001EB80004FF0000883
:104EF000855D28060AD5734802880BE009EB490056
:104F00007149F1E7714901EB0910EFE70A9828B9F7
:104F10006C48428821465046FCF725F96806050E84
:104F20006B48641CA4B24088A04219D9A4EB0B00C2
:104F3000B84209D10AF101001FFA80FA64485C46C0
:104F4000018851450CD906E008F1010000F0FF0886
:104F5000B8F1080FCDD3761CF6B200988642BAD3CA
:104F6000BDE8F88F0346012000E05843491EC9B24E
:104F7000FBD270472DE9FF4F81B00027DDF838B034
:104F80001D46924680463C46B9464FEA5B0627E0FE
:104F9000281B401EC1B20A20FFF7E4FFBAFBF0F065
:104FA0000A21B0FBF1F201FB120027B9691E8C4205
:104FB00001DA48B101273030C2B206FB048080B26A
:104FC0005B46CDF8009006E006FB048080B25B46AD
:104FD0002022CDF800900299FFF768FF641CE4B22C
:104FE000AC42D5D305B0BDE8F08F2DE9FF4F81B0BD
:104FF0008046DDF83CA00E984FF000091F4693460E
:105000004C460AF0010546082BE0381B401EC1B291
:105010000A20FFF7A7FFBBFBF0F00A21B0FBF1F27B
:1050200001FB1200B9F1000F05D1791E8C4202DAA2
:1050300048B14FF001093030C2B206FB048080B2A3
:1050400000950E9B08E05FEA0A6006FB04800E9B59
:1050500080B2009508D530220299FFF727FF641C23
:10506000E4B2BC42D1D3BDE72022F5E72DE9F84FE9
:10507000044600F0FF0810190D46DDE90A761FFA14
:1050800080FA58191FFA80F94FF0000B11E05445CF
:1050900002D3E819444685B24D450FD23B46294616
:1050A0002046CDF800B0FFF701FF04EB570084B2B3
:1050B000761C3278A2F120005E28E8D950E7000083
:1050C000963D02081400002032330208A637020879
:1050D000FC0200201CB50121112004F05AFD1C2007
:1050E000009000208DF8040003208DF805000124B5
:1050F0008DF807406946354804F024F902208DF800
:10510000070000946946324804F01CF91CBD2DE9E3
:10511000F041304C2E4F2D4D012608B1267001E094
:105120002078A0B11021284604F05DF9B0B1082123
:10513000284604F058F988B10421284604F053F9B0
:1051400060B10121384604F04EF9012806D0102143
:10515000284604F048F9012824D035E00A2003F05D
:1051600066FF002020701021284604F03CF980B131
:105170000821284604F037F970B10421284604F0CC
:1051800032F958B10121384604F02DF9012807D031
:105190001AE00120BDE8F0810220FBE70320F9E7D7
:1051A0000420F7E70821284604F01DF901280BD157
:1051B0000421284604F017F9012805D101213846B9
:1051C00004F011F900B926700020E3E70010024056
:1051D000000002401800002070B5404C0546022136
:1051E000204605F0A4FD0028F9D02946204605F008
:1051F00071FD0121204605F09AFD0028F9D02046D6
:1052000005F066FDC0B270BD2DE9F041012188B006
:10521000084604F0BEFC4FF480580121404604F0DB
:10522000E0FCE020022605908DF8186000248DF83F
:105230001A4003208DF81900294F01258DF81B50C5
:1052400005A9384604F07EF805221146384604F0D8
:10525000EDF805220621384604F0E8F8052207217A
:10526000384604F0E3F80121404604F0ECFC00214C
:10527000404604F0E8FCADF800404FF48270ADF811
:105280000200ADF808506802ADF80A003820ADF809
:105290000C00ADF80440ADF80E4007200F4CADF8FF
:1052A0001000ADF806606946204605F019FC0121A2
:1052B000204605F0A9FCFF20FFF78EFF08B0BDE8EF
:1052C000F08101460548028822F0380202800288F7
:1052D0000A430280012105F097BC00000030014024
:1052E0000000024070B5D04D0024C5F890429020D7
:1052F00005F52475FFF770FF0020FFF76DFF002014
:10530000FFF76AFF0020FFF767FFFF20FFF764FF4A
:1053100044EA0024FF20FFF75FFF204301212960BA
:1053200070BD7CB50121084604F033FC012140200A
:1053300004F02FFC1020012400908DF80440002080
:105340008DF8060003208DF805008DF807406946AA
:10535000B64803F0F7FF8020B54D00906946284617
:1053600003F0F0FF8021284604F051F8AE48C0F861
:105370009042FFF749FF0820FFF7A3FFFFF7B2FFB6
:10538000AC4908807CBD10B5A74C0020C4F8900241
:10539000052004F52474FFF71FFFFF20FFF71CFF13
:1053A0000121216010BD70B59F4C00210546C4F855
:1053B0009012012004F52474FFF70EFF2846FFF732
:1053C0000BFF0120206070BD10B5974C0020C4F881
:1053D0009002062004F52474FFF7FEFE01202060F1
:1053E00010BD10B5904C0020C4F89002042004F5C4
:1053F0002474FFF7F1FE0120206010BD2DE9F0417B
:10540000894F0646002015460C46C7F89002032037
:10541000FFF7E2FEC4F30740FFF7DEFEC4F3072008
:10542000FFF7DAFEE0B2FFF7D7FE002405E0FF2029
:10543000FFF7D2FE3055641CA4B2AC42F7D3012072
:10544000C7F89002BDE8F08110B5FFF79CFFC007D8
:10545000FBD110BD2DE9F04115460C460646FFF77D
:10546000B3FF714F0020C7F890020220FFF7B4FE8F
:10547000C4F30740FFF7B0FEC4F30720FFF7ACFE0C
:10548000E0B2FFF7A9FE002404E0305DFFF7A4FEC0
:10549000641CA4B2AC42F8D30120C7F89002BDE866
:1054A000F041D1E72DE9F0410746C8B2C0F580745C
:1054B0000E461546A24200D814464FF48078224684
:1054C00031463846FFF7C6FFA542BBD0281B27440C
:1054D000264485B24446A542F1D82C46EFE7B1E711
:1054E00070B50446014654A01BF0BCFF2403FFF72F
:1054F0006BFFFFF7A9FF4C4D0020C5F8900220205C
:1055000005F52475FFF768FEC4F30740FFF764FE56
:10551000C4F30720FFF760FEE0B2FFF75DFE012055
:105520002860BDE870408FE72DE9F05FC1F30B06FE
:10553000DFF80C810F0BC6F580548A46814615466C
:10554000A24200D8144639038B464FF4805240469D
:10555000FFF754FF002006E0321818F80210FF2968
:1055600003D1401C80B2A042F6D3A04221D23846DB
:10557000FFF7B6FF002006E019F800208319401C51
:1055800008F8032080B2A042F6D359464FF4805267
:105590004046FFF787FFA5420FD0281BA144A24435
:1055A000002685B24FF480547F1CA542CBD82C46F0
:1055B000C9E7224651464846EBE7BDE8F09F10B5E3
:1055C000FFF702FFFFF740FF174C0020C4F89002DE
:1055D000C72004F52474FFF7FFFD01202060BDE81B
:1055E000104031E710B5104C0020C4F89002B920EB
:1055F00004F52474FFF7F0FD01202060BDE81040A1
:10560000032003F0E6BC10B5074C0020C4F890025C
:10561000AB2004F52474FFF7DFFD01202060BDE816
:105620001040032003F0D5BC0000404200000240BF
:10563000001802401A00002066653A25780D0A001D
:105640000A030020FE4900200860091D0860091DAA
:105650000860091D0860FA4924310860091D0860C6
:10566000091D0860F64AF74938321160111D0860BB
:1056700070470021012803D010B126210846704749
:10568000F14A5070FAE7EE4A121D116821F0FF014D
:1056900001431160704710B50446E9483430016891
:1056A00011F0450FFBD0042005F035FC20B104209B
:1056B00005F03AFC032010BD012005F02CFC20B1C0
:1056C000012005F031FC012010BDDD4810300068DC
:1056D000A04201D0102010BD40F2FF5005F024FC84
:1056E000D7481430006800F0080010BD2DE9FC5FB9
:1056F0000024D64F00944FF4806801944025C7F8E9
:105700001080C7E902540E464FF0080B1021C7E97C
:1057100000B1A146384605F079FB1020FFF7BBFF2A
:10572000002855D1C848AA464D4600890004386073
:105730003720C7E9010AC7E90398384605F066FB38
:105740003720FFF7A8FF002842D1411E07F11400BF
:10575000C0E9001B302181600221C0E9031501214D
:10576000416105F079FB3320C7F808A0C7E9005074
:10577000C7E90358384605F049FB3320FFF78BFF94
:10578000050025D1DFF8B882DFF8B4924FF4001B92
:105790006F4608F1800809F1340940F22A6AD9F805
:1057A000000010EA0A0F0BD1584605F0B4FB0028A0
:1057B000F5D0D8F8000047F82400641C022CEED382
:1057C000082005F0A8FB28B1082005F0ADFB042057
:1057D000BDE8FC9F022005F09EFB20B1022005F0F1
:1057E000A3FB0220F4E7202005F095FB20B1202048
:1057F00005F09AFB0620EBE74FF40074204605F015
:105800008AFB20B1204605F08FFB0720E0E740F23D
:10581000FF5005F089FB009800BA7060019800BA4B
:1058200030602846D4E72DE9FC4100260096354635
:10583000019600B10225824814300068800102D52B
:105840000E20BDE8FC81804C6946208980B2FFF7BC
:105850004DFF0028F5D10198400322D520897B4CCB
:1058600000044FF0400820603720C4E901084FF4DD
:1058700080672046C4E9036705F0C8FA3720FFF7C0
:105880000AFF0028DDD10620C4F80880C4E90050D2
:10589000C4E90367204605F0B9FA0620FFF7FBFECE
:1058A000CFE72520CDE710B56749044600200978E9
:1058B000032918D019B1012901D0022912D1B4F558
:1058C000805F10D0E0B2FFF7AEFF00280AD15C493C
:1058D000091D0A6822F4C0520A600A6822430A605D
:1058E0000A680A6010BD272010BD584910B508602D
:1058F00007204860402088600020C8604FF4806026
:105900000861084605F082FABDE810400720C2E6AB
:105910002DE9F0474C49DFF834A14FF0000C0B782B
:1059200080F8563009890AF12C0AA0F85410DAF8E8
:1059300000104FF001090A0E95090570C2F38305A6
:10594000457002F0030282700A0CC2700A0A0271EA
:105950004171DAF80420110E0C01C2F3074144EA48
:10596000111401F00F08C480C2F3072180F80880E9
:10597000CC094472C1F380148472C1F34014C47220
:10598000C1F300140473544680F80DC0A468260EB9
:10599000C4F30745C4F3072733B1012B04D0032B0D
:1059A00002D0022B30D03EE08907090DD2B241EA85
:1059B000820141EA9612C6F3C2010261017506F046
:1059C0000701417569098175C5F38201C175A90790
:1059D0004B0F394643EAD1150576AD1C09FA05F39C
:1059E000DE17521CA2FB03570CFB037302FB0633AA
:1059F00009FA08F2A5FB0267026503FB027205FBC8
:105A00000C22C0E912620EE09106890A41EA0622E0
:105A10002A430261521C530BD204C0E912234FF4F3
:105A2000007239460265C1F38012427689064A0E39
:105A3000E1B242EAD11200F81A2F01F07F0107E02B
:105A4000002C0140FF07C0001C000020281300208C
:105A50004170DAF80C20110ECB098370C1F34113A9
:105A6000C370C1F38203037189070B0FC2F30741AF
:105A700043EA91134371C1F34013837180F807C067
:105A800001F001010172C2F30721CB094372C1F396
:105A900080138372C1F34013C372C1F30013037305
:105AA000C1F38103437301F003018173C2F3460123
:105AB000C1734B4680F81090FE4A11680C0E847436
:105AC0000C0CC1F3072545EA042484820C065168B6
:105AD0000D0E44EA0544C1F3074544EA0524C1F329
